{
  "contractName": "Callee",
  "abi": [
    {
      "anonymous": false,
      "inputs": [],
      "name": "Test2",
      "type": "event"
    },
    {
      "constant": false,
      "inputs": [],
      "name": "doSomething",
      "outputs": [],
      "payable": false,
      "stateMutability": "nonpayable",
      "type": "function"
    }
  ],
  "bytecode": "0x6080604052348015600f57600080fd5b5060ae8061001e6000396000f300608060405260043610603e5763ffffffff7c01000000000000000000000000000000000000000000000000000000006000350416638269267981146043575b600080fd5b348015604e57600080fd5b5060556057565b005b6040517f218444abc578edbda59494422900d382882215a57c1d3cda6543178584a699db90600090a15600a165627a7a7230582087a8b5f5bf12ad0cc24afbda3d71c8f1802acbef32a2e04a9a2351ffa50955760029",
  "source": "pragma solidity ^0.4.18;\r\n\r\ncontract Callee {\r\n\r\n   event Test2();\r\n\r\n   function doSomething() public {\r\n\t  emit Test2();\r\n   }\r\n}\r\n",
  "sourcePath": "C:\\Projects\\everdragons\\trontest\\eventTest\\contracts\\Callee.sol",
  "compiler": {
    "name": "solc",
    "version": "0.4.24-develop.2018.8.28+commit.3ba0cdec.mod.Emscripten.clang"
  },
  "schemaVersion": "2.0.1",
  "updatedAt": "2018-12-05T12:37:37.016Z"
}