{
  "contractName": "Caller",
  "abi": [
    {
      "anonymous": false,
      "inputs": [],
      "name": "Test1",
      "type": "event"
    },
    {
      "constant": false,
      "inputs": [
        {
          "name": "_addr",
          "type": "address"
        }
      ],
      "name": "setAddress",
      "outputs": [],
      "payable": false,
      "stateMutability": "nonpayable",
      "type": "function"
    },
    {
      "constant": false,
      "inputs": [],
      "name": "doCall",
      "outputs": [],
      "payable": false,
      "stateMutability": "nonpayable",
      "type": "function"
    }
  ],
  "bytecode": "0x608060405234801561001057600080fd5b506101e5806100206000396000f30060806040526004361061004c576000357c0100000000000000000000000000000000000000000000000000000000900463ffffffff168063205282f014610051578063e30081a014610068575b600080fd5b34801561005d57600080fd5b506100666100ab565b005b34801561007457600080fd5b506100a9600480360381019080803573ffffffffffffffffffffffffffffffffffffffff169060200190929190505050610176565b005b7fb15addec328b0945a4919485a548f5fd7cb2ffaa83717f694c8bc39c1bec329b60405160405180910390a16000809054906101000a900473ffffffffffffffffffffffffffffffffffffffff1673ffffffffffffffffffffffffffffffffffffffff1663826926796040518163ffffffff167c0100000000000000000000000000000000000000000000000000000000028152600401600060405180830381600087803b15801561015c57600080fd5b505af1158015610170573d6000803e3d6000fd5b50505050565b806000806101000a81548173ffffffffffffffffffffffffffffffffffffffff021916908373ffffffffffffffffffffffffffffffffffffffff160217905550505600a165627a7a723058206a9db9678e83cff6bfc947f0686af978021ab18db7e5b7efb0ff73db03d3e4500029",
  "source": "pragma solidity ^0.4.18;\n\nimport \"./Callee.sol\";\n\ncontract Caller {\n\n   event Test1();\n\n   Callee callee;\n   \n   function setAddress(address _addr) public {\n\tcallee = Callee(_addr);\n   }\n   \n   function doCall() public {\n\temit Test1();\n\tcallee.doSomething(); \t\n   }\n   \n}\n",
  "sourcePath": "C:\\Projects\\everdragons\\trontest\\eventbug\\contracts\\Caller.sol",
  "compiler": {
    "name": "solc",
    "version": "0.4.24-develop.2018.8.28+commit.3ba0cdec.mod.Emscripten.clang"
  },
  "schemaVersion": "2.0.1",
  "updatedAt": "2018-11-15T16:53:47.916Z"
}