{
  "contractName": "Callee",
  "abi": [
    {
      "anonymous": false,
      "inputs": [],
      "name": "Test2",
      "type": "event"
    },
    {
      "constant": false,
      "inputs": [],
      "name": "doSomething",
      "outputs": [],
      "payable": false,
      "stateMutability": "nonpayable",
      "type": "function"
    }
  ],
  "bytecode": "0x6080604052348015600f57600080fd5b5060b28061001e6000396000f300608060405260043610603f576000357c0100000000000000000000000000000000000000000000000000000000900463ffffffff16806382692679146044575b600080fd5b348015604f57600080fd5b5060566058565b005b7f218444abc578edbda59494422900d382882215a57c1d3cda6543178584a699db60405160405180910390a15600a165627a7a72305820c7e735d05e593824cef6238e18255176ee428401ddc25149c37756641a0c968a0029",
  "source": "pragma solidity ^0.4.18;\n\ncontract Callee {\n\n   event Test2();\n\n   function doSomething() public {\n\t  emit Test2();\n   }\n}\n",
  "sourcePath": "C:\\Projects\\everdragons\\trontest\\eventbug\\contracts\\Callee.sol",
  "compiler": {
    "name": "solc",
    "version": "0.4.24-develop.2018.8.28+commit.3ba0cdec.mod.Emscripten.clang"
  },
  "schemaVersion": "2.0.1",
  "updatedAt": "2018-11-15T16:53:47.916Z"
}