{
  "contractName": "Caller",
  "abi": [
    {
      "anonymous": false,
      "inputs": [],
      "name": "Test1",
      "type": "event"
    },
    {
      "constant": false,
      "inputs": [
        {
          "name": "_addr",
          "type": "address"
        }
      ],
      "name": "setAddress",
      "outputs": [],
      "payable": false,
      "stateMutability": "nonpayable",
      "type": "function"
    },
    {
      "constant": false,
      "inputs": [],
      "name": "doCall",
      "outputs": [],
      "payable": false,
      "stateMutability": "nonpayable",
      "type": "function"
    }
  ],
  "bytecode": "0x608060405234801561001057600080fd5b506101a7806100206000396000f30060806040526004361061004b5763ffffffff7c0100000000000000000000000000000000000000000000000000000000600035041663205282f08114610050578063e30081a014610067575b600080fd5b34801561005c57600080fd5b50610065610095565b005b34801561007357600080fd5b5061006573ffffffffffffffffffffffffffffffffffffffff6004351661013f565b6040517fb15addec328b0945a4919485a548f5fd7cb2ffaa83717f694c8bc39c1bec329b90600090a160008054604080517f82692679000000000000000000000000000000000000000000000000000000008152905173ffffffffffffffffffffffffffffffffffffffff9092169263826926799260048084019382900301818387803b15801561012557600080fd5b505af1158015610139573d6000803e3d6000fd5b50505050565b6000805473ffffffffffffffffffffffffffffffffffffffff191673ffffffffffffffffffffffffffffffffffffffff929092169190911790555600a165627a7a723058209dbbe45213f79d338d7efd9ccb3eade0f62b0ad91fbb96b75da3e2b463b259fa0029",
  "source": "pragma solidity ^0.4.18;\r\n\r\nimport \"./Callee.sol\";\r\n\r\ncontract Caller {\r\n\r\n   event Test1();\r\n\r\n   Callee callee;\r\n   \r\n   function setAddress(address _addr) public {\r\n\tcallee = Callee(_addr);\r\n   }\r\n   \r\n   function doCall() public {\r\n\temit Test1();\r\n\tcallee.doSomething(); \t\r\n   }\r\n   \r\n}\r\n",
  "sourcePath": "C:\\Projects\\everdragons\\trontest\\eventTest\\contracts\\Caller.sol",
  "compiler": {
    "name": "solc",
    "version": "0.4.24-develop.2018.8.28+commit.3ba0cdec.mod.Emscripten.clang"
  },
  "schemaVersion": "2.0.1",
  "updatedAt": "2018-12-05T12:37:37.015Z"
}